{
  "contractName": "Election",
  "abi": [
    {
      "constant": true,
      "inputs": [],
      "name": "candidatesCount",
      "outputs": [
        {
          "name": "",
          "type": "uint256"
        }
      ],
      "payable": false,
      "stateMutability": "view",
      "type": "function"
    },
    {
      "constant": true,
      "inputs": [
        {
          "name": "",
          "type": "uint256"
        }
      ],
      "name": "candidates",
      "outputs": [
        {
          "name": "id",
          "type": "uint256"
        },
        {
          "name": "matricule",
          "type": "uint256"
        },
        {
          "name": "name",
          "type": "string"
        },
        {
          "name": "fname",
          "type": "string"
        },
        {
          "name": "date",
          "type": "uint256"
        },
        {
          "name": "adresss",
          "type": "string"
        },
        {
          "name": "email",
          "type": "string"
        },
        {
          "name": "poste",
          "type": "string"
        },
        {
          "name": "voteCount",
          "type": "uint256"
        }
      ],
      "payable": false,
      "stateMutability": "view",
      "type": "function"
    },
    {
      "constant": true,
      "inputs": [
        {
          "name": "",
          "type": "address"
        }
      ],
      "name": "voters",
      "outputs": [
        {
          "name": "",
          "type": "bool"
        }
      ],
      "payable": false,
      "stateMutability": "view",
      "type": "function"
    },
    {
      "inputs": [],
      "payable": false,
      "stateMutability": "nonpayable",
      "type": "constructor"
    },
    {
      "anonymous": false,
      "inputs": [
        {
          "indexed": true,
          "name": "_candidateId",
          "type": "uint256"
        }
      ],
      "name": "votedEvent",
      "type": "event"
    },
    {
      "constant": false,
      "inputs": [
        {
          "name": "_matricule",
          "type": "uint256"
        },
        {
          "name": "_name",
          "type": "string"
        },
        {
          "name": "_fname",
          "type": "string"
        },
        {
          "name": "_date",
          "type": "uint256"
        },
        {
          "name": "_adresss",
          "type": "string"
        },
        {
          "name": "_email",
          "type": "string"
        },
        {
          "name": "_poste",
          "type": "string"
        }
      ],
      "name": "addCandidate",
      "outputs": [],
      "payable": false,
      "stateMutability": "nonpayable",
      "type": "function"
    },
    {
      "constant": false,
      "inputs": [
        {
          "name": "_candidateId",
          "type": "uint256"
        }
      ],
      "name": "vote",
      "outputs": [],
      "payable": false,
      "stateMutability": "nonpayable",
      "type": "function"
    }
  ],
  "bytecode": "0x60806040523480156200001157600080fd5b506200013e600c6040805190810160405280600b81526020017f43616e64696461746520310000000000000000000000000000000000000000008152506040805190810160405280600b81526020017f43616e64696461746520320000000000000000000000000000000000000000008152506164356040805190810160405280600b81526020017f43616e64696461746520320000000000000000000000000000000000000000008152506040805190810160405280600b81526020017f43616e64696461746520320000000000000000000000000000000000000000008152506040805190810160405280600b81526020017f43616e646964617465203200000000000000000000000000000000000000000081525062000270640100000000026401000000009004565b6200026a600c6040805190810160405280600b81526020017f43616e64696461746520310000000000000000000000000000000000000000008152506040805190810160405280600b81526020017f43616e64696461746520320000000000000000000000000000000000000000008152506164356040805190810160405280600b81526020017f43616e64696461746520320000000000000000000000000000000000000000008152506040805190810160405280600b81526020017f43616e64696461746520320000000000000000000000000000000000000000008152506040805190810160405280600b81526020017f43616e646964617465203200000000000000000000000000000000000000000081525062000270640100000000026401000000009004565b6200045a565b6002600081548092919060010191905055506101206040519081016040528060025481526020018881526020018781526020018681526020018581526020018481526020018381526020018281526020016000815250600160006002548152602001908152602001600020600082015181600001556020820151816001015560408201518160020190805190602001906200030d929190620003ab565b5060608201518160030190805190602001906200032c929190620003ab565b506080820151816004015560a082015181600501908051906020019062000355929190620003ab565b5060c082015181600601908051906020019062000374929190620003ab565b5060e082015181600701908051906020019062000393929190620003ab565b50610100820151816008015590505050505050505050565b828054600181600116156101000203166002900490600052602060002090601f016020900481019282601f10620003ee57805160ff19168380011785556200041f565b828001600101855582156200041f579182015b828111156200041e57825182559160200191906001019062000401565b5b5090506200042e919062000432565b5090565b6200045791905b808211156200045357600081600090555060010162000439565b5090565b90565b610bbc806200046a6000396000f30060806040526004361061006d576000357c0100000000000000000000000000000000000000000000000000000000900463ffffffff1680630121b93f1461007257806305aba8a01461009f5780632d35a8a2146102345780633477ee2e1461025f578063a3ec138d146104d1575b600080fd5b34801561007e57600080fd5b5061009d6004803603810190808035906020019092919050505061052c565b005b3480156100ab57600080fd5b5061023260048036038101908080359060200190929190803590602001908201803590602001908080601f0160208091040260200160405190810160405280939291908181526020018383808284378201915050505050509192919290803590602001908201803590602001908080601f016020809104026020016040519081016040528093929190818152602001838380828437820191505050505050919291929080359060200190929190803590602001908201803590602001908080601f0160208091040260200160405190810160405280939291908181526020018383808284378201915050505050509192919290803590602001908201803590602001908080601f0160208091040260200160405190810160405280939291908181526020018383808284378201915050505050509192919290803590602001908201803590602001908080601f016020809104026020016040519081016040528093929190818152602001838380828437820191505050505050919291929050505061064e565b005b34801561024057600080fd5b5061024961077f565b6040518082815260200191505060405180910390f35b34801561026b57600080fd5b5061028a60048036038101908080359060200190929190505050610785565b604051808a8152602001898152602001806020018060200188815260200180602001806020018060200187815260200186810386528d818151815260200191508051906020019080838360005b838110156102f25780820151818401526020810190506102d7565b50505050905090810190601f16801561031f5780820380516001836020036101000a031916815260200191505b5086810385528c818151815260200191508051906020019080838360005b8381101561035857808201518184015260208101905061033d565b50505050905090810190601f1680156103855780820380516001836020036101000a031916815260200191505b5086810384528a818151815260200191508051906020019080838360005b838110156103be5780820151818401526020810190506103a3565b50505050905090810190601f1680156103eb5780820380516001836020036101000a031916815260200191505b50868103835289818151815260200191508051906020019080838360005b83811015610424578082015181840152602081019050610409565b50505050905090810190601f1680156104515780820380516001836020036101000a031916815260200191505b50868103825288818151815260200191508051906020019080838360005b8381101561048a57808201518184015260208101905061046f565b50505050905090810190601f1680156104b75780820380516001836020036101000a031916815260200191505b509e50505050505050505050505050505060405180910390f35b3480156104dd57600080fd5b50610512600480360381019080803573ffffffffffffffffffffffffffffffffffffffff169060200190929190505050610acb565b604051808215151515815260200191505060405180910390f35b6000803373ffffffffffffffffffffffffffffffffffffffff1673ffffffffffffffffffffffffffffffffffffffff16815260200190815260200160002060009054906101000a900460ff1615151561058457600080fd5b60008111801561059657506002548111155b15156105a157600080fd5b60016000803373ffffffffffffffffffffffffffffffffffffffff1673ffffffffffffffffffffffffffffffffffffffff16815260200190815260200160002060006101000a81548160ff0219169083151502179055506001600082815260200190815260200160002060080160008154809291906001019190505550807ffff3c900d938d21d0990d786e819f29b8d05c1ef587b462b939609625b684b1660405160405180910390a250565b6002600081548092919060010191905055506101206040519081016040528060025481526020018881526020018781526020018681526020018581526020018481526020018381526020018281526020016000815250600160006002548152602001908152602001600020600082015181600001556020820151816001015560408201518160020190805190602001906106e9929190610aeb565b506060820151816003019080519060200190610706929190610aeb565b506080820151816004015560a082015181600501908051906020019061072d929190610aeb565b5060c082015181600601908051906020019061074a929190610aeb565b5060e0820151816007019080519060200190610767929190610aeb565b50610100820151816008015590505050505050505050565b60025481565b6001602052806000526040600020600091509050806000015490806001015490806002018054600181600116156101000203166002900480601f01602080910402602001604051908101604052809291908181526020018280546001816001161561010002031660029004801561083d5780601f106108125761010080835404028352916020019161083d565b820191906000526020600020905b81548152906001019060200180831161082057829003601f168201915b505050505090806003018054600181600116156101000203166002900480601f0160208091040260200160405190810160405280929190818152602001828054600181600116156101000203166002900480156108db5780601f106108b0576101008083540402835291602001916108db565b820191906000526020600020905b8154815290600101906020018083116108be57829003601f168201915b505050505090806004015490806005018054600181600116156101000203166002900480601f01602080910402602001604051908101604052809291908181526020018280546001816001161561010002031660029004801561097f5780601f106109545761010080835404028352916020019161097f565b820191906000526020600020905b81548152906001019060200180831161096257829003601f168201915b505050505090806006018054600181600116156101000203166002900480601f016020809104026020016040519081016040528092919081815260200182805460018160011615610100020316600290048015610a1d5780601f106109f257610100808354040283529160200191610a1d565b820191906000526020600020905b815481529060010190602001808311610a0057829003601f168201915b505050505090806007018054600181600116156101000203166002900480601f016020809104026020016040519081016040528092919081815260200182805460018160011615610100020316600290048015610abb5780601f10610a9057610100808354040283529160200191610abb565b820191906000526020600020905b815481529060010190602001808311610a9e57829003601f168201915b5050505050908060080154905089565b60006020528060005260406000206000915054906101000a900460ff1681565b828054600181600116156101000203166002900490600052602060002090601f016020900481019282601f10610b2c57805160ff1916838001178555610b5a565b82800160010185558215610b5a579182015b82811115610b59578251825591602001919060010190610b3e565b5b509050610b679190610b6b565b5090565b610b8d91905b80821115610b89576000816000905550600101610b71565b5090565b905600a165627a7a72305820cd6352978936346f51f64d3ae03ad4453ca59aa74f3018ffc991afe8985587050029",
  "source": "pragma solidity 0.4.25;\r\n\r\ncontract Election {\r\n    // Model a Candidate\r\n    struct Candidate {\r\n        uint id;\r\n        uint matricule;\r\n        string name;\r\n        string fname;\r\n        uint date;\r\n        string adresss;\r\n        string email;\r\n        string poste;\r\n        uint voteCount;\r\n    }\r\n\r\n    // Store accounts that have voted\r\n    mapping(address => bool) public voters;\r\n    // Store Candidates\r\n    // Fetch Candidate\r\n    mapping(uint => Candidate) public candidates;\r\n    // Store Candidates Count\r\n    uint public candidatesCount;\r\n\r\n    // voted event\r\n    event votedEvent (\r\n        uint indexed _candidateId\r\n    );\r\n\r\n    constructor () public {\r\n        addCandidate(12,\"Candidate 1\",\"Candidate 2\",25653,\"Candidate 2\",\"Candidate 2\",\"Candidate 2\");\r\n        addCandidate(12,\"Candidate 1\",\"Candidate 2\",25653,\"Candidate 2\",\"Candidate 2\",\"Candidate 2\");\r\n   }\r\n\r\n    function addCandidate (uint _matricule,string _name,string _fname,uint _date,string _adresss, string _email,string _poste) public {\r\n        candidatesCount ++;\r\n        candidates[candidatesCount] = Candidate(candidatesCount,_matricule,_name,_fname,_date,_adresss,_email,_poste, 0);\r\n    }\r\n\r\n    function vote (uint _candidateId) public {\r\n        // require that they haven't voted before\r\n        require(!voters[msg.sender]);\r\n\r\n        // require a valid candidate\r\n        require(_candidateId > 0 && _candidateId <= candidatesCount);\r\n\r\n        // record that voter has voted\r\n        voters[msg.sender] = true;\r\n\r\n        // update candidate vote Count\r\n        candidates[_candidateId].voteCount ++;\r\n\r\n        // trigger voted event\r\n        emit votedEvent(_candidateId);\r\n    }\r\n}\r\n",
  "sourcePath": "C:\\Users\\medbe\\Desktop\\Blockchain\\election\\contracts\\Election.sol",
  "compiler": {
    "name": "solc",
    "version": "0.4.25+commit.59dbf8f1.Emscripten.clang"
  },
  "schemaVersion": "3.1.0",
  "updatedAt": "2020-04-16T21:23:34.774Z",
  "networkType": "ethereum",
  "devdoc": {
    "methods": {}
  },
  "userdoc": {
    "methods": {}
  }
}